{
    "contractName": "ERC20",
    "abi": [
        {
            "inputs": [
                {
                    "internalType": "uint256",
                    "name": "initialAmount",
                    "type": "uint256"
                },
                {
                    "internalType": "string",
                    "name": "tokenName",
                    "type": "string"
                },
                {
                    "internalType": "uint8",
                    "name": "decimalUnit",
                    "type": "uint8"
                },
                {
                    "internalType": "string",
                    "name": "tokenSymbol",
                    "type": "string"
                }
            ],
            "stateMutability": "nonpayable",
            "type": "constructor"
        },
        {
            "anonymous": false,
            "inputs": [
                {
                    "indexed": true,
                    "internalType": "address",
                    "name": "_owner",
                    "type": "address"
                },
                {
                    "indexed": true,
                    "internalType": "address",
                    "name": "_spender",
                    "type": "address"
                },
                {
                    "indexed": false,
                    "internalType": "uint256",
                    "name": "_value",
                    "type": "uint256"
                }
            ],
            "name": "Approval",
            "type": "event"
        },
        {
            "anonymous": false,
            "inputs": [
                {
                    "indexed": true,
                    "internalType": "address",
                    "name": "_from",
                    "type": "address"
                },
                {
                    "indexed": true,
                    "internalType": "address",
                    "name": "_to",
                    "type": "address"
                },
                {
                    "indexed": false,
                    "internalType": "uint256",
                    "name": "_value",
                    "type": "uint256"
                }
            ],
            "name": "Transfer",
            "type": "event"
        },
        {
            "inputs": [
                {
                    "internalType": "address",
                    "name": "owner",
                    "type": "address"
                },
                {
                    "internalType": "address",
                    "name": "spender",
                    "type": "address"
                }
            ],
            "name": "allowance",
            "outputs": [
                {
                    "internalType": "uint256",
                    "name": "",
                    "type": "uint256"
                }
            ],
            "stateMutability": "view",
            "type": "function"
        },
        {
            "inputs": [
                {
                    "internalType": "address",
                    "name": "spender",
                    "type": "address"
                },
                {
                    "internalType": "uint256",
                    "name": "amount",
                    "type": "uint256"
                }
            ],
            "name": "approve",
            "outputs": [
                {
                    "internalType": "bool",
                    "name": "",
                    "type": "bool"
                }
            ],
            "stateMutability": "nonpayable",
            "type": "function"
        },
        {
            "inputs": [
                {
                    "internalType": "address",
                    "name": "account",
                    "type": "address"
                }
            ],
            "name": "balanceOf",
            "outputs": [
                {
                    "internalType": "uint256",
                    "name": "",
                    "type": "uint256"
                }
            ],
            "stateMutability": "view",
            "type": "function"
        },
        {
            "inputs": [],
            "name": "decimals",
            "outputs": [
                {
                    "internalType": "uint8",
                    "name": "",
                    "type": "uint8"
                }
            ],
            "stateMutability": "view",
            "type": "function"
        },
        {
            "inputs": [],
            "name": "name",
            "outputs": [
                {
                    "internalType": "string",
                    "name": "",
                    "type": "string"
                }
            ],
            "stateMutability": "view",
            "type": "function"
        },
        {
            "inputs": [],
            "name": "symbol",
            "outputs": [
                {
                    "internalType": "string",
                    "name": "",
                    "type": "string"
                }
            ],
            "stateMutability": "view",
            "type": "function"
        },
        {
            "inputs": [],
            "name": "totSupply",
            "outputs": [
                {
                    "internalType": "uint256",
                    "name": "",
                    "type": "uint256"
                }
            ],
            "stateMutability": "view",
            "type": "function"
        },
        {
            "inputs": [],
            "name": "totalSupply",
            "outputs": [
                {
                    "internalType": "uint256",
                    "name": "",
                    "type": "uint256"
                }
            ],
            "stateMutability": "view",
            "type": "function"
        },
        {
            "inputs": [
                {
                    "internalType": "address",
                    "name": "to",
                    "type": "address"
                },
                {
                    "internalType": "uint256",
                    "name": "amount",
                    "type": "uint256"
                }
            ],
            "name": "transfer",
            "outputs": [
                {
                    "internalType": "bool",
                    "name": "",
                    "type": "bool"
                }
            ],
            "stateMutability": "nonpayable",
            "type": "function"
        },
        {
            "inputs": [
                {
                    "internalType": "address",
                    "name": "from",
                    "type": "address"
                },
                {
                    "internalType": "address",
                    "name": "to",
                    "type": "address"
                },
                {
                    "internalType": "uint256",
                    "name": "amount",
                    "type": "uint256"
                }
            ],
            "name": "transferFrom",
            "outputs": [
                {
                    "internalType": "bool",
                    "name": "",
                    "type": "bool"
                }
            ],
            "stateMutability": "nonpayable",
            "type": "function"
        }
    ],
    "bytecode": "60806040523480156200001157600080fd5b5060405162000c1938038062000c19833981016040819052620000349162000203565b336000908152602081815260409091208590556002859055835162000060916004919086019062000090565b506003805460ff191660ff841617905580516200008590600590602084019062000090565b5050505050620002ce565b8280546200009e9062000292565b90600052602060002090601f016020900481019282620000c257600085556200010d565b82601f10620000dd57805160ff19168380011785556200010d565b828001600101855582156200010d579182015b828111156200010d578251825591602001919060010190620000f0565b506200011b9291506200011f565b5090565b5b808211156200011b576000815560010162000120565b634e487b7160e01b600052604160045260246000fd5b600082601f8301126200015e57600080fd5b81516001600160401b03808211156200017b576200017b62000136565b604051601f8301601f19908116603f01168101908282118183101715620001a657620001a662000136565b81604052838152602092508683858801011115620001c357600080fd5b600091505b83821015620001e75785820183015181830184015290820190620001c8565b83821115620001f95760008385830101525b9695505050505050565b600080600080608085870312156200021a57600080fd5b845160208601519094506001600160401b03808211156200023a57600080fd5b62000248888389016200014c565b94506040870151915060ff821682146200026157600080fd5b6060870151919350808211156200027757600080fd5b5062000286878288016200014c565b91505092959194509250565b600181811c90821680620002a757607f821691505b602082108103620002c857634e487b7160e01b600052602260045260246000fd5b50919050565b61093b80620002de6000396000f3fe608060405234801561001057600080fd5b506004361061009e5760003560e01c806370a082311161006657806370a082311461012857806381fbf0a51461015157806395d89b411461015a578063a9059cbb14610162578063dd62ed3e1461017557600080fd5b806306fdde03146100a3578063095ea7b3146100c157806318160ddd146100e457806323b872dd146100f6578063313ce56714610109575b600080fd5b6100ab6101ae565b6040516100b891906106f3565b60405180910390f35b6100d46100cf366004610764565b61023c565b60405190151581526020016100b8565b6002545b6040519081526020016100b8565b6100d461010436600461078e565b6102f2565b6003546101169060ff1681565b60405160ff90911681526020016100b8565b6100e86101363660046107ca565b6001600160a01b031660009081526020819052604090205490565b6100e860025481565b6100ab61052a565b6100d4610170366004610764565b610537565b6100e86101833660046107ec565b6001600160a01b03918216600090815260016020908152604080832093909416825291909152205490565b600480546101bb9061081f565b80601f01602080910402602001604051908101604052809291908181526020018280546101e79061081f565b80156102345780601f1061020957610100808354040283529160200191610234565b820191906000526020600020905b81548152906001019060200180831161021757829003601f168201915b505050505081565b600033806102655760405162461bcd60e51b815260040161025c90610859565b60405180910390fd5b6001600160a01b03841661028b5760405162461bcd60e51b815260040161025c9061089d565b6001600160a01b0381811660008181526001602090815260408083209489168084529482529182902087905590518681527f8c5be1e5ebec7d5bd14f71427d1e84f3dd0314c0f7b2291e5b200ac8c7c3b92591015b60405180910390a35060019392505050565b6001600160a01b0383166000908152600160209081526040808320338085529252822054600019811461041a578381101561036f5760405162461bcd60e51b815260206004820152601d60248201527f45524332303a20696e73756666696369656e7420616c6c6f77616e6365000000604482015260640161025c565b6001600160a01b0386166103955760405162461bcd60e51b815260040161025c90610859565b6001600160a01b0382166103bb5760405162461bcd60e51b815260040161025c9061089d565b6001600160a01b03868116600081815260016020908152604080832094871680845294825291829020888603905590518781527f8c5be1e5ebec7d5bd14f71427d1e84f3dd0314c0f7b2291e5b200ac8c7c3b925910160405180910390a35b6001600160a01b038616600090815260208190526040902054848110156104925760405162461bcd60e51b815260206004820152602660248201527f45524332303a207472616e7366657220616d6f756e7420657863656564732062604482015265616c616e636560d01b606482015260840161025c565b6001600160a01b038088166000908152602081905260408082208885039055918816815290812080548792906104c99084906108df565b92505081905550856001600160a01b0316876001600160a01b03167fddf252ad1be2c89b69c2b068fc378daa952ba7f163c4a11628f55a4df523b3ef8760405161051591815260200190565b60405180910390a35060019695505050505050565b600580546101bb9061081f565b600033806105955760405162461bcd60e51b815260206004820152602560248201527f45524332303a207472616e736665722066726f6d20746865207a65726f206164604482015264647265737360d81b606482015260840161025c565b6001600160a01b0384166105f75760405162461bcd60e51b815260206004820152602360248201527f45524332303a207472616e7366657220746f20746865207a65726f206164647260448201526265737360e81b606482015260840161025c565b6001600160a01b03811660009081526020819052604090205483111561066e5760405162461bcd60e51b815260206004820152602660248201527f496e73756666696369656e742066756e647320666f72207472616e7366657220604482015265736f7572636560d01b606482015260840161025c565b6001600160a01b0380821660009081526020819052604080822080548790039055918616815290812080548592906106a79084906108df565b92505081905550836001600160a01b0316816001600160a01b03167fddf252ad1be2c89b69c2b068fc378daa952ba7f163c4a11628f55a4df523b3ef856040516102e091815260200190565b600060208083528351808285015260005b8181101561072057858101830151858201604001528201610704565b81811115610732576000604083870101525b50601f01601f1916929092016040019392505050565b80356001600160a01b038116811461075f57600080fd5b919050565b6000806040838503121561077757600080fd5b61078083610748565b946020939093013593505050565b6000806000606084860312156107a357600080fd5b6107ac84610748565b92506107ba60208501610748565b9150604084013590509250925092565b6000602082840312156107dc57600080fd5b6107e582610748565b9392505050565b600080604083850312156107ff57600080fd5b61080883610748565b915061081660208401610748565b90509250929050565b600181811c9082168061083357607f821691505b60208210810361085357634e487b7160e01b600052602260045260246000fd5b50919050565b60208082526024908201527f45524332303a20617070726f76652066726f6d20746865207a65726f206164646040820152637265737360e01b606082015260800190565b60208082526022908201527f45524332303a20617070726f766520746f20746865207a65726f206164647265604082015261737360f01b606082015260800190565b6000821982111561090057634e487b7160e01b600052601160045260246000fd5b50019056fea26469706673582212202ddd2c69f1ffa846afe7f4e300135234a647026df8a2ea01d0e4695721254f5f64736f6c634300080d0033",
    "sourcePath": "/Users/cristianflores/Documents/Dapps UDEMY/SupplyChain/contracts/erc20Token.sol",
    "compiler": {
        "name": "solc",
        "version": "0.8.13+commit.abaa5c0e"
    },
    "functionHashes": {
        "allowance(address,address)": "dd62ed3e",
        "approve(address,uint256)": "095ea7b3",
        "balanceOf(address)": "70a08231",
        "decimals()": "313ce567",
        "name()": "06fdde03",
        "symbol()": "95d89b41",
        "totSupply()": "81fbf0a5",
        "totalSupply()": "18160ddd",
        "transfer(address,uint256)": "a9059cbb",
        "transferFrom(address,address,uint256)": "23b872dd"
    },
    "gasEstimates": {
        "creation": {
            "codeDepositCost": "472600",
            "executionCost": "infinite",
            "totalCost": "infinite"
        },
        "external": {
            "allowance(address,address)": "infinite",
            "approve(address,uint256)": "24568",
            "balanceOf(address)": "2540",
            "decimals()": "2402",
            "name()": "infinite",
            "symbol()": "infinite",
            "totSupply()": "2317",
            "totalSupply()": "2326",
            "transfer(address,uint256)": "53277",
            "transferFrom(address,address,uint256)": "infinite"
        }
    }
}