{
    "contractName": "SupplyChain",
    "abi": [
        {
            "anonymous": false,
            "inputs": [
                {
                    "indexed": false,
                    "internalType": "uint32",
                    "name": "productId",
                    "type": "uint32"
                }
            ],
            "name": "TransferOwnership",
            "type": "event"
        },
        {
            "inputs": [
                {
                    "internalType": "string",
                    "name": "_name",
                    "type": "string"
                },
                {
                    "internalType": "string",
                    "name": "_pass",
                    "type": "string"
                },
                {
                    "internalType": "address",
                    "name": "_pAdd",
                    "type": "address"
                },
                {
                    "internalType": "string",
                    "name": "_pType",
                    "type": "string"
                }
            ],
            "name": "addParticipant",
            "outputs": [
                {
                    "internalType": "uint32",
                    "name": "",
                    "type": "uint32"
                }
            ],
            "stateMutability": "nonpayable",
            "type": "function"
        },
        {
            "inputs": [
                {
                    "internalType": "uint32",
                    "name": "_ownerId",
                    "type": "uint32"
                },
                {
                    "internalType": "string",
                    "name": "_modelNumber",
                    "type": "string"
                },
                {
                    "internalType": "string",
                    "name": "_partNumber",
                    "type": "string"
                },
                {
                    "internalType": "string",
                    "name": "_serialNumber",
                    "type": "string"
                },
                {
                    "internalType": "uint32",
                    "name": "_productCost",
                    "type": "uint32"
                }
            ],
            "name": "addProduct",
            "outputs": [
                {
                    "internalType": "uint32",
                    "name": "",
                    "type": "uint32"
                }
            ],
            "stateMutability": "nonpayable",
            "type": "function"
        },
        {
            "inputs": [
                {
                    "internalType": "uint32",
                    "name": "_uid",
                    "type": "uint32"
                },
                {
                    "internalType": "string",
                    "name": "_uname",
                    "type": "string"
                },
                {
                    "internalType": "string",
                    "name": "_pass",
                    "type": "string"
                },
                {
                    "internalType": "string",
                    "name": "_utype",
                    "type": "string"
                }
            ],
            "name": "authenticateParticipant",
            "outputs": [
                {
                    "internalType": "bool",
                    "name": "",
                    "type": "bool"
                }
            ],
            "stateMutability": "view",
            "type": "function"
        },
        {
            "inputs": [
                {
                    "internalType": "uint32",
                    "name": "_regId",
                    "type": "uint32"
                }
            ],
            "name": "getOwnership",
            "outputs": [
                {
                    "internalType": "uint32",
                    "name": "",
                    "type": "uint32"
                },
                {
                    "internalType": "uint32",
                    "name": "",
                    "type": "uint32"
                },
                {
                    "internalType": "address",
                    "name": "",
                    "type": "address"
                },
                {
                    "internalType": "uint32",
                    "name": "",
                    "type": "uint32"
                }
            ],
            "stateMutability": "view",
            "type": "function"
        },
        {
            "inputs": [
                {
                    "internalType": "uint32",
                    "name": "_participant_id",
                    "type": "uint32"
                }
            ],
            "name": "getParticipant",
            "outputs": [
                {
                    "internalType": "string",
                    "name": "",
                    "type": "string"
                },
                {
                    "internalType": "address",
                    "name": "",
                    "type": "address"
                },
                {
                    "internalType": "string",
                    "name": "",
                    "type": "string"
                }
            ],
            "stateMutability": "view",
            "type": "function"
        },
        {
            "inputs": [
                {
                    "internalType": "uint32",
                    "name": "_productId",
                    "type": "uint32"
                }
            ],
            "name": "getProduct",
            "outputs": [
                {
                    "internalType": "string",
                    "name": "",
                    "type": "string"
                },
                {
                    "internalType": "string",
                    "name": "",
                    "type": "string"
                },
                {
                    "internalType": "string",
                    "name": "",
                    "type": "string"
                },
                {
                    "internalType": "uint32",
                    "name": "",
                    "type": "uint32"
                },
                {
                    "internalType": "address",
                    "name": "",
                    "type": "address"
                },
                {
                    "internalType": "uint32",
                    "name": "",
                    "type": "uint32"
                }
            ],
            "stateMutability": "view",
            "type": "function"
        },
        {
            "inputs": [
                {
                    "internalType": "uint32",
                    "name": "_prodId",
                    "type": "uint32"
                }
            ],
            "name": "getProvenance",
            "outputs": [
                {
                    "internalType": "uint32[]",
                    "name": "",
                    "type": "uint32[]"
                }
            ],
            "stateMutability": "view",
            "type": "function"
        },
        {
            "inputs": [
                {
                    "internalType": "uint32",
                    "name": "_user1Id",
                    "type": "uint32"
                },
                {
                    "internalType": "uint32",
                    "name": "_user2Id",
                    "type": "uint32"
                },
                {
                    "internalType": "uint32",
                    "name": "_prodId",
                    "type": "uint32"
                }
            ],
            "name": "newOwner",
            "outputs": [
                {
                    "internalType": "bool",
                    "name": "",
                    "type": "bool"
                }
            ],
            "stateMutability": "nonpayable",
            "type": "function"
        },
        {
            "inputs": [],
            "name": "owner_id",
            "outputs": [
                {
                    "internalType": "uint32",
                    "name": "",
                    "type": "uint32"
                }
            ],
            "stateMutability": "view",
            "type": "function"
        },
        {
            "inputs": [
                {
                    "internalType": "uint32",
                    "name": "",
                    "type": "uint32"
                }
            ],
            "name": "ownerships",
            "outputs": [
                {
                    "internalType": "uint32",
                    "name": "productId",
                    "type": "uint32"
                },
                {
                    "internalType": "uint32",
                    "name": "ownerId",
                    "type": "uint32"
                },
                {
                    "internalType": "uint32",
                    "name": "trxTimeStamp",
                    "type": "uint32"
                },
                {
                    "internalType": "address",
                    "name": "productOwner",
                    "type": "address"
                }
            ],
            "stateMutability": "view",
            "type": "function"
        },
        {
            "inputs": [],
            "name": "participant_id",
            "outputs": [
                {
                    "internalType": "uint32",
                    "name": "",
                    "type": "uint32"
                }
            ],
            "stateMutability": "view",
            "type": "function"
        },
        {
            "inputs": [
                {
                    "internalType": "uint32",
                    "name": "",
                    "type": "uint32"
                }
            ],
            "name": "participants",
            "outputs": [
                {
                    "internalType": "string",
                    "name": "userName",
                    "type": "string"
                },
                {
                    "internalType": "string",
                    "name": "password",
                    "type": "string"
                },
                {
                    "internalType": "string",
                    "name": "participantType",
                    "type": "string"
                },
                {
                    "internalType": "address",
                    "name": "participantAddress",
                    "type": "address"
                }
            ],
            "stateMutability": "view",
            "type": "function"
        },
        {
            "inputs": [
                {
                    "internalType": "uint32",
                    "name": "",
                    "type": "uint32"
                },
                {
                    "internalType": "uint256",
                    "name": "",
                    "type": "uint256"
                }
            ],
            "name": "productTrack",
            "outputs": [
                {
                    "internalType": "uint32",
                    "name": "",
                    "type": "uint32"
                }
            ],
            "stateMutability": "view",
            "type": "function"
        },
        {
            "inputs": [],
            "name": "product_id",
            "outputs": [
                {
                    "internalType": "uint32",
                    "name": "",
                    "type": "uint32"
                }
            ],
            "stateMutability": "view",
            "type": "function"
        },
        {
            "inputs": [
                {
                    "internalType": "uint32",
                    "name": "",
                    "type": "uint32"
                }
            ],
            "name": "products",
            "outputs": [
                {
                    "internalType": "string",
                    "name": "modelNumber",
                    "type": "string"
                },
                {
                    "internalType": "string",
                    "name": "partNumber",
                    "type": "string"
                },
                {
                    "internalType": "string",
                    "name": "serialNumber",
                    "type": "string"
                },
                {
                    "internalType": "address",
                    "name": "productOwner",
                    "type": "address"
                },
                {
                    "internalType": "uint32",
                    "name": "cost",
                    "type": "uint32"
                },
                {
                    "internalType": "uint32",
                    "name": "mfgTimeStamp",
                    "type": "uint32"
                }
            ],
            "stateMutability": "view",
            "type": "function"
        }
    ],
    "bytecode": "6080604052600080546001600160601b031916905534801561002057600080fd5b50612360806100306000396000f3fe608060405234801561001057600080fd5b50600436106100f55760003560e01c80638f5ebf7111610097578063df6d23f111610066578063df6d23f1146102b9578063eab0a4791461036a578063ebf43a7e1461037a578063fc2da9101461038d57600080fd5b80638f5ebf7114610238578063a638ac491461024f578063bf712fd614610274578063c85695651461029957600080fd5b806350632104116100d3578063506321041461016c578063721b57431461017f5780637d0a9ac91461019257806381e15610146101b557600080fd5b80631a074802146100fa5780632e9d5284146101275780633b26a65d1461014a575b600080fd5b61010d610108366004611cd9565b6103a5565b60405163ffffffff90911681526020015b60405180910390f35b61013a610135366004611d03565b6103ee565b604051901515815260200161011e565b61015d610158366004611d46565b611027565b60405161011e93929190611dc4565b61010d61017a366004611ea5565b61117e565b61013a61018d366004611f4f565b6113a9565b6101a56101a0366004611d46565b6114f5565b60405161011e9493929190611fe8565b6102026101c3366004611d46565b60036020526000908152604090205463ffffffff808216916401000000008104821691600160401b82041690600160601b90046001600160a01b031684565b6040805163ffffffff9586168152938516602085015291909316908201526001600160a01b03909116606082015260800161011e565b60005461010d90600160401b900463ffffffff1681565b61026261025d366004611d46565b6116be565b60405161011e9695949392919061203b565b610287610282366004611d46565b6118cc565b60405161011e969594939291906120a6565b6102ac6102a7366004611d46565b611aae565b60405161011e919061210e565b6103316102c7366004611d46565b63ffffffff8082166000908152600360209081526040918290208251608081018452905480851680835264010000000082048616938301849052600160401b82049095169382018490526001600160a01b03600160601b9091041660609091018190529093509193565b6040805163ffffffff958616815293851660208501526001600160a01b039092169183019190915291909116606082015260800161011e565b60005461010d9063ffffffff1681565b61010d610388366004612158565b611b43565b60005461010d90640100000000900463ffffffff1681565b600460205281600052604060002081815481106103c157600080fd5b9060005260206000209060089182820401919006600402915091509054906101000a900463ffffffff1681565b63ffffffff811660009081526001602052604081206003015482906001600160a01b0316331461043e5760405162461bcd60e51b8152602060048201526000602482015260440160405180910390fd5b63ffffffff851660009081526002602052604080822081516080810190925280548290829061046c906121e8565b80601f0160208091040260200160405190810160405280929190818152602001828054610498906121e8565b80156104e55780601f106104ba576101008083540402835291602001916104e5565b820191906000526020600020905b8154815290600101906020018083116104c857829003601f168201915b505050505081526020016001820180546104fe906121e8565b80601f016020809104026020016040519081016040528092919081815260200182805461052a906121e8565b80156105775780601f1061054c57610100808354040283529160200191610577565b820191906000526020600020905b81548152906001019060200180831161055a57829003601f168201915b50505050508152602001600282018054610590906121e8565b80601f01602080910402602001604051908101604052809291908181526020018280546105bc906121e8565b80156106095780601f106105de57610100808354040283529160200191610609565b820191906000526020600020905b8154815290600101906020018083116105ec57829003601f168201915b5050509183525050600391909101546001600160a01b031660209182015263ffffffff8716600090815260029091526040808220815160808101909252805493945091929091908290829061065d906121e8565b80601f0160208091040260200160405190810160405280929190818152602001828054610689906121e8565b80156106d65780601f106106ab576101008083540402835291602001916106d6565b820191906000526020600020905b8154815290600101906020018083116106b957829003601f168201915b505050505081526020016001820180546106ef906121e8565b80601f016020809104026020016040519081016040528092919081815260200182805461071b906121e8565b80156107685780601f1061073d57610100808354040283529160200191610768565b820191906000526020600020905b81548152906001019060200180831161074b57829003601f168201915b50505050508152602001600282018054610781906121e8565b80601f01602080910402602001604051908101604052809291908181526020018280546107ad906121e8565b80156107fa5780601f106107cf576101008083540402835291602001916107fa565b820191906000526020600020905b8154815290600101906020018083116107dd57829003601f168201915b5050509183525050600391909101546001600160a01b03166020909101526000805491925090600160401b900463ffffffff1681600861083983612222565b91906101000a81548163ffffffff021916908363ffffffff16021790555090507fcec9b8e63c868f2f7f30368f1583e7aa39ae80e163d57a859fa5a90244b28ac1836040015160405160200161088f9190612253565b604051602081830303815290604052805190602001201480156108e9575060008051602061230b83398151915282604001516040516020016108d19190612253565b60405160208183030381529060405280519060200120145b15610b015785600360008363ffffffff1663ffffffff16815260200190815260200160002060000160006101000a81548163ffffffff021916908363ffffffff1602179055508160600151600360008363ffffffff1663ffffffff168152602001908152602001600020600001600c6101000a8154816001600160a01b0302191690836001600160a01b0316021790555086600360008363ffffffff1663ffffffff16815260200190815260200160002060000160046101000a81548163ffffffff021916908363ffffffff16021790555042600360008363ffffffff1663ffffffff16815260200190815260200160002060000160086101000a81548163ffffffff021916908363ffffffff1602179055508160600151600160008863ffffffff1663ffffffff16815260200190815260200160002060030160006101000a8154816001600160a01b0302191690836001600160a01b03160217905550600460008763ffffffff1663ffffffff1681526020019081526020016000208190806001815401808255809150506001900390600052602060002090600891828204019190066004029091909190916101000a81548163ffffffff021916908363ffffffff1602179055507fa5470ac012c6e9dc500e62b1d3de0de58db49b3ab7cfebbfb126d9abd854199b86604051610aed919063ffffffff91909116815260200190565b60405180910390a16001945050505061101f565b60008051602061230b8339815191528360400151604051602001610b259190612253565b60405160208183030381529060405280519060200120148015610b7f575060008051602061230b8339815191528260400151604051602001610b679190612253565b60405160208183030381529060405280519060200120145b15610d835785600360008363ffffffff1663ffffffff16815260200190815260200160002060000160006101000a81548163ffffffff021916908363ffffffff1602179055508160600151600360008363ffffffff1663ffffffff168152602001908152602001600020600001600c6101000a8154816001600160a01b0302191690836001600160a01b0316021790555086600360008363ffffffff1663ffffffff16815260200190815260200160002060000160046101000a81548163ffffffff021916908363ffffffff16021790555042600360008363ffffffff1663ffffffff16815260200190815260200160002060000160086101000a81548163ffffffff021916908363ffffffff1602179055508160600151600160008863ffffffff1663ffffffff16815260200190815260200160002060030160006101000a8154816001600160a01b0302191690836001600160a01b03160217905550600460008763ffffffff1663ffffffff1681526020019081526020016000208190806001815401808255809150506001900390600052602060002090600891828204019190066004029091909190916101000a81548163ffffffff021916908363ffffffff1602179055507fa5470ac012c6e9dc500e62b1d3de0de58db49b3ab7cfebbfb126d9abd854199b86604051610aed919063ffffffff91909116815260200190565b60008051602061230b8339815191528360400151604051602001610da79190612253565b60405160208183030381529060405280519060200120148015610e1357507fc0878b4b16a78e8085cba0ca02fc0924f1492924058d153153a3f286e0fd70ff8260400151604051602001610dfb9190612253565b60405160208183030381529060405280519060200120145b156110175785600360008363ffffffff1663ffffffff16815260200190815260200160002060000160006101000a81548163ffffffff021916908363ffffffff1602179055508160600151600360008363ffffffff1663ffffffff168152602001908152602001600020600001600c6101000a8154816001600160a01b0302191690836001600160a01b0316021790555086600360008363ffffffff1663ffffffff16815260200190815260200160002060000160046101000a81548163ffffffff021916908363ffffffff16021790555042600360008363ffffffff1663ffffffff16815260200190815260200160002060000160086101000a81548163ffffffff021916908363ffffffff1602179055508160600151600160008863ffffffff1663ffffffff16815260200190815260200160002060030160006101000a8154816001600160a01b0302191690836001600160a01b03160217905550600460008763ffffffff1663ffffffff1681526020019081526020016000208190806001815401808255809150506001900390600052602060002090600891828204019190066004029091909190916101000a81548163ffffffff021916908363ffffffff1602179055507fa5470ac012c6e9dc500e62b1d3de0de58db49b3ab7cfebbfb126d9abd854199b86604051610aed919063ffffffff91909116815260200190565b600094505050505b509392505050565b63ffffffff81166000908152600260208190526040822060038101548154606094938593926001600160a01b031691908301908390611065906121e8565b80601f0160208091040260200160405190810160405280929190818152602001828054611091906121e8565b80156110de5780601f106110b3576101008083540402835291602001916110de565b820191906000526020600020905b8154815290600101906020018083116110c157829003601f168201915b505050505092508080546110f1906121e8565b80601f016020809104026020016040519081016040528092919081815260200182805461111d906121e8565b801561116a5780601f1061113f5761010080835404028352916020019161116a565b820191906000526020600020905b81548152906001019060200180831161114d57829003601f168201915b505050505090509250925092509193909250565b63ffffffff8516600090815260026020818152604080842090517fcec9b8e63c868f2f7f30368f1583e7aa39ae80e163d57a859fa5a90244b28ac1936111c7939201910161226f565b604051602081830303815290604052805190602001200361139c576000805463ffffffff1681806111f783612222565b82546101009290920a63ffffffff81810219909316918316021790915581166000908152600160209081526040909120885192935061123a929091890190611c27565b5063ffffffff81166000908152600160208181526040909220875161126793919092019190880190611c27565b5063ffffffff81166000908152600160209081526040909120855161129492600290920191870190611c27565b5082600160008363ffffffff1663ffffffff16815260200190815260200160002060030160146101000a81548163ffffffff021916908363ffffffff160217905550600260008863ffffffff1663ffffffff16815260200190815260200160002060030160009054906101000a90046001600160a01b0316600160008363ffffffff1663ffffffff16815260200190815260200160002060030160006101000a8154816001600160a01b0302191690836001600160a01b0316021790555042600160008363ffffffff1663ffffffff16815260200190815260200160002060030160186101000a81548163ffffffff021916908363ffffffff160217905550809150506113a0565b5060005b95945050505050565b6000816040516020016113bc9190612253565b60408051601f19818403018152828252805160209182012063ffffffff89166000908152600280845293902090936113f99391909101910161226f565b60405160208183030381529060405280519060200120036114e957836040516020016114259190612253565b60408051601f19818403018152828252805160209182012063ffffffff891660009081526002835292909220919261145e92910161226f565b60405160208183030381529060405280519060200120036114e9578260405160200161148a9190612253565b60408051601f19818403018152828252805160209182012063ffffffff89166000908152600283529290922091926114c692600101910161226f565b60405160208183030381529060405280519060200120036114e9575060016114ed565b5060005b949350505050565b600260205260009081526040902080548190611510906121e8565b80601f016020809104026020016040519081016040528092919081815260200182805461153c906121e8565b80156115895780601f1061155e57610100808354040283529160200191611589565b820191906000526020600020905b81548152906001019060200180831161156c57829003601f168201915b50505050509080600101805461159e906121e8565b80601f01602080910402602001604051908101604052809291908181526020018280546115ca906121e8565b80156116175780601f106115ec57610100808354040283529160200191611617565b820191906000526020600020905b8154815290600101906020018083116115fa57829003601f168201915b50505050509080600201805461162c906121e8565b80601f0160208091040260200160405190810160405280929190818152602001828054611658906121e8565b80156116a55780601f1061167a576101008083540402835291602001916116a5565b820191906000526020600020905b81548152906001019060200180831161168857829003601f168201915b505050600390930154919250506001600160a01b031684565b63ffffffff8082166000908152600160208190526040822060038101548154606095869586959094859485949193928401926002850192600160a01b83048216926001600160a01b03811692600160c01b9091041690869061171f906121e8565b80601f016020809104026020016040519081016040528092919081815260200182805461174b906121e8565b80156117985780601f1061176d57610100808354040283529160200191611798565b820191906000526020600020905b81548152906001019060200180831161177b57829003601f168201915b505050505095508480546117ab906121e8565b80601f01602080910402602001604051908101604052809291908181526020018280546117d7906121e8565b80156118245780601f106117f957610100808354040283529160200191611824565b820191906000526020600020905b81548152906001019060200180831161180757829003601f168201915b50505050509450838054611837906121e8565b80601f0160208091040260200160405190810160405280929190818152602001828054611863906121e8565b80156118b05780601f10611885576101008083540402835291602001916118b0565b820191906000526020600020905b81548152906001019060200180831161189357829003601f168201915b5050505050935095509550955095509550955091939550919395565b6001602052600090815260409020805481906118e7906121e8565b80601f0160208091040260200160405190810160405280929190818152602001828054611913906121e8565b80156119605780601f1061193557610100808354040283529160200191611960565b820191906000526020600020905b81548152906001019060200180831161194357829003601f168201915b505050505090806001018054611975906121e8565b80601f01602080910402602001604051908101604052809291908181526020018280546119a1906121e8565b80156119ee5780601f106119c3576101008083540402835291602001916119ee565b820191906000526020600020905b8154815290600101906020018083116119d157829003601f168201915b505050505090806002018054611a03906121e8565b80601f0160208091040260200160405190810160405280929190818152602001828054611a2f906121e8565b8015611a7c5780601f10611a5157610100808354040283529160200191611a7c565b820191906000526020600020905b815481529060010190602001808311611a5f57829003601f168201915b505050600390930154919250506001600160a01b0381169063ffffffff600160a01b8204811691600160c01b90041686565b63ffffffff8116600090815260046020908152604091829020805483518184028101840190945280845260609392830182828015611b3757602002820191906000526020600020906000905b82829054906101000a900463ffffffff1663ffffffff1681526020019060040190602082600301049283019260010382029150808411611afa5790505b50505050509050919050565b600080548190640100000000900463ffffffff16816004611b6383612222565b82546101009290920a63ffffffff818102199093169183160217909155811660009081526002602090815260409091208851929350611ba6929091890190611c27565b5063ffffffff811660009081526002602090815260409091208651611bd392600190920191880190611c27565b5063ffffffff811660009081526002602081815260409092206003810180546001600160a01b0319166001600160a01b0389161790558551611c1d93919092019190860190611c27565b5095945050505050565b828054611c33906121e8565b90600052602060002090601f016020900481019282611c555760008555611c9b565b82601f10611c6e57805160ff1916838001178555611c9b565b82800160010185558215611c9b579182015b82811115611c9b578251825591602001919060010190611c80565b50611ca7929150611cab565b5090565b5b80821115611ca75760008155600101611cac565b803563ffffffff81168114611cd457600080fd5b919050565b60008060408385031215611cec57600080fd5b611cf583611cc0565b946020939093013593505050565b600080600060608486031215611d1857600080fd5b611d2184611cc0565b9250611d2f60208501611cc0565b9150611d3d60408501611cc0565b90509250925092565b600060208284031215611d5857600080fd5b611d6182611cc0565b9392505050565b60005b83811015611d83578181015183820152602001611d6b565b83811115611d92576000848401525b50505050565b60008151808452611db0816020860160208601611d68565b601f01601f19169290920160200192915050565b606081526000611dd76060830186611d98565b6001600160a01b03851660208401528281036040840152611df88185611d98565b9695505050505050565b634e487b7160e01b600052604160045260246000fd5b600082601f830112611e2957600080fd5b813567ffffffffffffffff80821115611e4457611e44611e02565b604051601f8301601f19908116603f01168101908282118183101715611e6c57611e6c611e02565b81604052838152866020858801011115611e8557600080fd5b836020870160208301376000602085830101528094505050505092915050565b600080600080600060a08688031215611ebd57600080fd5b611ec686611cc0565b9450602086013567ffffffffffffffff80821115611ee357600080fd5b611eef89838a01611e18565b95506040880135915080821115611f0557600080fd5b611f1189838a01611e18565b94506060880135915080821115611f2757600080fd5b50611f3488828901611e18565b925050611f4360808701611cc0565b90509295509295909350565b60008060008060808587031215611f6557600080fd5b611f6e85611cc0565b9350602085013567ffffffffffffffff80821115611f8b57600080fd5b611f9788838901611e18565b94506040870135915080821115611fad57600080fd5b611fb988838901611e18565b93506060870135915080821115611fcf57600080fd5b50611fdc87828801611e18565b91505092959194509250565b608081526000611ffb6080830187611d98565b828103602084015261200d8187611d98565b905082810360408401526120218186611d98565b91505060018060a01b038316606083015295945050505050565b60c08152600061204e60c0830189611d98565b82810360208401526120608189611d98565b905082810360408401526120748188611d98565b63ffffffff96871660608501526001600160a01b039590951660808401525050921660a0909201919091529392505050565b60c0815260006120b960c0830189611d98565b82810360208401526120cb8189611d98565b905082810360408401526120df8188611d98565b6001600160a01b03969096166060840152505063ffffffff9283166080820152911660a0909101529392505050565b6020808252825182820181905260009190848201906040850190845b8181101561214c57835163ffffffff168352928401929184019160010161212a565b50909695505050505050565b6000806000806080858703121561216e57600080fd5b843567ffffffffffffffff8082111561218657600080fd5b61219288838901611e18565b955060208701359150808211156121a857600080fd5b6121b488838901611e18565b9450604087013591506001600160a01b03821682146121d257600080fd5b90925060608601359080821115611fcf57600080fd5b600181811c908216806121fc57607f821691505b60208210810361221c57634e487b7160e01b600052602260045260246000fd5b50919050565b600063ffffffff80831681810361224957634e487b7160e01b600052601160045260246000fd5b6001019392505050565b60008251612265818460208701611d68565b9190910192915050565b600080835481600182811c91508083168061228b57607f831692505b602080841082036122aa57634e487b7160e01b86526022600452602486fd5b8180156122be57600181146122cf576122fc565b60ff198616895284890196506122fc565b60008a81526020902060005b868110156122f45781548b8201529085019083016122db565b505084890196505b50949897505050505050505056feb77c7d6bf62fa24fc205955093030c58325cd2d3d35fb486ede7594fb99635f5a26469706673582212206257ee95229acd88546f5777bff0531192ecc19f2da636ea9d321afa49d659d064736f6c634300080d0033",
    "sourcePath": "/Users/cristianflores/Documents/Dapps UDEMY/SupplyChain/contracts/SupplyChain.sol",
    "compiler": {
        "name": "solc",
        "version": "0.8.13+commit.abaa5c0e"
    },
    "functionHashes": {
        "addParticipant(string,string,address,string)": "ebf43a7e",
        "addProduct(uint32,string,string,string,uint32)": "50632104",
        "authenticateParticipant(uint32,string,string,string)": "721b5743",
        "getOwnership(uint32)": "df6d23f1",
        "getParticipant(uint32)": "3b26a65d",
        "getProduct(uint32)": "a638ac49",
        "getProvenance(uint32)": "c8569565",
        "newOwner(uint32,uint32,uint32)": "2e9d5284",
        "owner_id()": "8f5ebf71",
        "ownerships(uint32)": "81e15610",
        "participant_id()": "fc2da910",
        "participants(uint32)": "7d0a9ac9",
        "productTrack(uint32,uint256)": "1a074802",
        "product_id()": "eab0a479",
        "products(uint32)": "bf712fd6"
    },
    "gasEstimates": {
        "creation": {
            "codeDepositCost": "1811200",
            "executionCost": "26135",
            "totalCost": "1837335"
        },
        "external": {
            "addParticipant(string,string,address,string)": "infinite",
            "addProduct(uint32,string,string,string,uint32)": "infinite",
            "authenticateParticipant(uint32,string,string,string)": "infinite",
            "getOwnership(uint32)": "2867",
            "getParticipant(uint32)": "infinite",
            "getProduct(uint32)": "infinite",
            "getProvenance(uint32)": "infinite",
            "newOwner(uint32,uint32,uint32)": "infinite",
            "owner_id()": "2342",
            "ownerships(uint32)": "2791",
            "participant_id()": "2401",
            "participants(uint32)": "infinite",
            "productTrack(uint32,uint256)": "6421",
            "product_id()": "2346",
            "products(uint32)": "infinite"
        }
    }
}